:100000000C942A000C9463000C9463000C9463001D
:100010000C9463000C9463000C9463000C946300D4
:100020000C9463000C9463000C9463000C946300C4
:100030000C9463000C9463000C9463000C946300B4
:100040000C9463000C9463000C9463000C946300A4
:100050000C94630011241FBECFE5D8E0DEBFCDBFF6
:0C0060000E945F000C945400F894FFCF45
:10006C0027E030E018C048B381E090E0022E02C0D7
:10007C00880F991F0A94E2F7942F982B98BBEFE402
:10008C00F3EC3197F1F700C0000098B38095892309
:0C009C0088BB21503109332334F7E2CF38
:1000A800EC010E9468000E946700CE010E9469006E
:0600B800CE010E9465006C
:0800BE008FEF87BB0E943600A2
:0400C6000C94000096
:0400CA000E9434005C
:0200CE00089593
:0200D000089591
:0200D20008958F
:00000001FF
