:100000000C942A000C9466000C9466000C94660014
:100010000C9466000C9466000C9466000C946600C8
:100020000C9466000C9466000C9466000C946600B8
:100030000C9466000C9466000C9466000C946600A8
:100040000C9466000C9466000C9466000C94660098
:100050000C94660011241FBECFE5D8E0DEBFCDBFF3
:10006000E4E5F0E040E017C0B591A5913591259108
:10007000059107FD0CC095918591EF01F92FE82FAF
:1000800005900D92A217B307D9F7FE0104C01D9287
:10009000A217B307E1F7E435F40731F70E946800CF
:0800A0000C945400F894FFCF0A
:1000A800EC010E946D000E946C00CE010E946E005F
:0600B800CE010E946A0067
:0E00BE008FEF87BB11BA80B3809588BBFCCF53
:0400CC000C94000090
:0400D0000E945F002B
:0400D4000E94520034
:0200D800089589
:0200DA00089587
:0200DC00089585
:00000001FF
