:100000000C942D000C940D160C940D160C940D16DA
:100010000C940D160C940D160C940D160C940D16D4
:100020000C940D160C940D160C940D160C940D16C4
:100030000C940D160C940D160C940D160C940D16B4
:100040000C940D160C940D160C940D160C940D16A4
:100050000C940D160060010A800011241FBECFE52C
:10006000D8E0DEBFCDBFE4E5F0E040E017C0B591D9
:10007000A59135912591059107FD0CC0959185912C
:10008000EF01F92FE82F05900D92A217B307D9F7CA
:10009000FE0104C01D92A217B307E1F7E935F4078A
:0E00A00031F70E94C7140C949115F894FFCF0D
:1000AE0054686520766F6C746167652069732025CE
:1000BE002E3266560D0A5468652076616C75652081
:1000CE006973202569005072657373206120627513
:1000DE0074746F6E20746F20737461727420636F0A
:1000EE006E76657273696F6E00566F6C74616765BC
:1000FE003A20252E3266560050696E2041303A2045
:10010E00252E3266560D0A50696E2041313A202551
:10011E002E3266560D0A54656D703A20252E3166C4
:02012E0043008C
:1001300068076C094C836A9074A07AC00080688854
:0601400000846C820081C6
:10014600494E4600696E66004E414E006E616E0075
:07015600286E756C6C290096
:06015D00286E696C290008
:10016400A3EAB0E0E8EBF0E00C9448144C01590128
:10017400C756DF4F488359836A83C959D040212C1D
:10018400312C6E012BE8C20ED11C85E2782E26019B
:1001940030E8632ECE018D569F4FC456DF4F9983AE
:1001A4008883CC59D0409C0140E8CF55DF4F288349
:1001B40039834A83C15AD040C756DF4F4881C95951
:1001C400D040C656DF4F5881CA59D040C556DF4F7C
:1001D4006881CB59D040FA01849167FD80818823DE
:1001E40009F4C9C3CF57DF4F19821882C158D040D0
:1001F4008FEF9FEFCD57DF4F99838883C358D0404B
:10020400CB57DF4F19821882C558D040A1E0B0E027
:10021400AC0FBD1FC957DF4FB983A883C758D0405F
:10022400E0E8F0E0C757DF4FF983E883C958D040CE
:10023400CA01A62FE12CF12CFC012491A7FD2081F9
:1002440021111BC0E114F10401F19701C4010E94C2
:100254003D13C756DF4F88819981AA81C959D0407F
:100264008E0D9F1DA11DF7FCAA95C756DF4F8883ED
:100274009983AA83C959D04008C00196A11D25328B
:1002840009F3FFEFEF1AFF0AD7CFC756DF4F888174
:100294009981AA81C959D040FC012491A7FD2081EC
:1002A400253209F056C39C014A2F2F5F3F4F4F4F11
:1002B400C256DF4F288339834A83CE59D040C7566C
:1002C400DF4F288339834A83C959D040C756DF4F4B
:1002D40088819981AA81C959D040FC012491A7FD44
:1002E40020812B3241F4CF57DF4F28813981C15807
:1002F400D04024600BC02C32CCF02D3259F5CF57AE
:10030400DF4F28813981C158D0402160CF57DF4F5A
:1003140039832883C158D0400196A11DC756DF4FA9
:1003240088839983AA83C959D040D0CF203241F41D
:10033400CF57DF4F28813981C158D0402860E6CF9C
:10034400233291F4CF57DF4F28813981C158D040EF
:100354002061DCCF203341F4CF57DF4F288139812E
:10036400C158D0402260D2CF2A3299F50196A11DFE
:10037400C756DF4F88839983AA83C959D040D501D2
:10038400ED91FC911197CF0102968D939C938081FE
:100394009181CB57DF4F99838883C558D04097FF0D
:1003A4003EC0CF57DF4F28813981C158D040B1E0DA
:1003B4002B27CF57DF4F39832883C158D0409195DD
:1003C40081959109CB57DF4F99838883C558D040D5
:1003D40026C0BC018A2F0E947D12CB57DF4F998320
:1003E4008883C558D040C756DF4F288139814A8158
:1003F400C959D040F901849147FD8081082E000C31
:10040400990BC0970A9758F42F5F3F4F4F4FC75629
:10041400DF4F288339834A83C959D040E4CFCF576B
:10042400DF4F88819981C158D04080FF07C08D7FFC
:10043400CF57DF4F99838883C158D040C756DF4FC9
:1004440088819981AA81C959D040FC012491A7FDD2
:1004540020812E3209F058C0CD57DF4F19821882FF
:10046400C358D0409C014A2F2F5F3F4F4F4FC75670
:10047400DF4F288339834A83C959D040F901549105
:1004840047FD50815A32D1F40296A11DC756DF4F61
:1004940088839983AA83C959D040D501ED91FC91F1
:1004A4001197CF0102968D939C9380819181CD57B2
:1004B400DF4F99838883C358D04026C0842FB90165
:1004C4000E947D12CD57DF4F99838883C358D04053
:1004D400C756DF4F288139814A81C959D040F90173
:1004E400849147FD8081082E000C990BC0970A97D0
:1004F40058F42F5F3F4F4F4FC756DF4F2883398340
:100504004A83C959D040E4CFCE0187569F4F0E94F9
:100514009711182FC756DF4F2881C959D040C656A6
:10052400DF4F8881CA59D040C556DF4F9881CB59D7
:10053400D040E22FF82F849197FD8081082E000C83
:10054400990B0E94C0158936910509F45AC0B4F478
:100554008336910509F466C144F48532910509F4A2
:10056400A1C18136910529F1B3C18436910509F4FD
:1005740048C0883691050CF42DC1AAC18037910575
:1005840009F4CBC04CF48E36910509F419C18F36A9
:10059400910509F47CC09CC18537910509F454C0C8
:1005A4008837910509F496C08337910509F090C105
:1005B40058C1612F70E0A501C6010E940A14892B5D
:1005C40009F4B7C1C756DF4F88819981AA81C959F7
:1005D400D0409C014A2F2F5F3F4F4F4FC756DF4FEC
:1005E400288339834A83C959D040FC012491A7FD4B
:1005F4002081A601BE016F577F4FC4010E940A16D5
:1006040095C1612F70E0950141E050E0C6010E9460
:100614001F0A892B09F48DC1C756DF4F8881998140
:10062400AA81C959D0400196A11DC756DF4F8883BE
:100634009983AA83C959D040A601BE016F577F4F41
:10064400C4010E94600972C1612F70E0950140E00D
:1006540050E0C6010E941F0A892B09F46AC1C756DB
:10066400DF4F88819981AA81C959D0400196A11D83
:10067400C756DF4F88839983AA83C959D040A601FE
:10068400BE016F577F4FC4010E949C104FC1612F60
:1006940070E0950140E050E0C6010E941F0A892BDA
:1006A40009F447C1C756DF4F88819981AA81C95986
:1006B400D0400196A11DC756DF4F88839983AA8332
:1006C400C959D040A601BE016F577F4FC4010E9493
:1006D400660F2CC1612F70E0950140E050E0C60127
:1006E4000E941F0A892B09F424C1C756DF4F888151
:1006F4009981AA81C959D0409C014A2F2F5F3F4F4D
:100704004F4FC756DF4F288339834A83C959D04096
:10071400FC012491A7FD20814BC0950140E050E0ED
:1007240060EF70E0C6010E941F0A892B09F401C121
:10073400C756DF4F88819981AA81C959D040019653
:10074400A11DC756DF4F88839983AA83C959D04016
:1007540086E02DE531E040E0F901DE01AD56BF4F02
:10076400742F0E946015D6012C9111963C9111971B
:1007740012964C91129713965C91139714966C9160
:10078400149715967C91159716968C911697179633
:100794009C91A0E00E94791551F400E010E0CF553F
:1007A400DF4F288139814A81C15AD040B9C028E736
:1007B400A601BE016F577F4FC4010E942008B6C036
:1007C400612F70E09501A1014E0D5F1DC6010E94CD
:1007D400900EAFC0612F70E0A501C6010E940A14FB
:1007E400892B09F4A6C0C756DF4F88819981AA8155
:1007F400C959D0409C014A2F2F5F3F4F4F4FC756D6
:10080400DF4F288339834A83C959D040FC0124919E
:10081400A7FD2081A601BE016F577F4FC4010E942E
:10082400C30484C0103809F084C0C756DF4F8881E0
:100834009981AA81C959D0400196A11DC756DF4F9D
:1008440088839983AA83C959D040D501ED91FC913D
:100854001197CF0102968D939C938081F60180833A
:100864005BC0103809F065C0C756DF4F8881998195
:10087400AA81C959D0400196A11DC756DF4F88836C
:100884009983AA83C959D040D501ED91FC91119760
:10089400CF0103968D939C9320813181428100E0A6
:1008A40010E03EC0103809F044C0C756DF4F8881BD
:1008B4009981AA81C959D0400196A11DC756DF4F1D
:1008C40088839983AA83C959D040F601708224C0D1
:1008D400D6017C92C256DF4F288139814A81CE5994
:1008E400D040C756DF4F288339834A83C959D04043
:1008F400CF57DF4F19821882C158D040CB57DF4FF2
:1009040019821882C558D0408FEF9FEFCD57DF4F23
:1009140099838883C358D04001E010E0462D9201AA
:10092400BE016F577F4FC4010E9437108E0D9F1D6B
:1009340011C0C756DF4F88819981AA81C959D04017
:100944000196A11DC756DF4F88839983AA83C9598D
:10095400D040C7017101E80EF91EE214F3044CF40F
:100964008FE490E090930101809300018FEF9FEF5B
:1009740003C0170121CCC101CD55DF4FE2E10C9436
:020984006414F9
:10098600A6E2B0E0E9ECF4E00C9448149F8F8E8F59
:10099600798F688F122FFB010190F081E02DFA8785
:1009A600E987FB01C280D380248135813C8B2B8B68
:1009B6008085918599A388A30680F781E02DFA8327
:1009C600E983FA0180809180A280B38020E030E044
:1009D600A901C501B4010E94F11587FF06C0B7FA47
:1009E600B094B7F8B0948DE204C0F985F2FF0CC359
:1009F6008BE2E981FA8180832B893C892150310978
:100A060038872F8341E050E05A8B498B06C08B898B
:100A16009C8998878F831A8A198AD501C401BF7762
:100A26000097E0E8AE07EFE7BE07D9F4212F110FD4
:100A3600330B2154310989819A8149895A89840F56
:100A4600951F2A31310520F446E451E060E003C0E9
:100A56004AE451E060E00E9437156AE471E080E004
:100A66001EC00197A048BF4730F1212F110F330B4D
:100A76002154310989819A8149895A89840F951FA0
:100A86002A31310520F44EE451E060E003C042E52E
:100A960051E060E00E94371562E571E080E00E9457
:100AA600B114E981FA81AF0160E8E984FA840B891F
:100AB6001C899C01A1C220E030E0A901C501B40156
:100AC6000E94F1151B821C82882309F467C0F0E896
:100AD600FD832FE32E83212C312C20E030E040E2F1
:100AE60051E46B817C818D819E810E940316F62ED6
:100AF600072F8D879B87A50194010E94F61518166E
:100B060054F03FEF231A330AFB820C834D854D8345
:100B16005B855E83E2CF1C861B862B813C814D81E3
:100B26005E81C501B4010E94F11587FF3DC084EDC9
:100B360028168EEF380604F5EB85FC85EF2BE1F4DD
:100B460020E030E040E85AE5C501B4010E940316F2
:100B56004B015C0120E030E040E85AE56B817C8186
:100B66008D819E810E9403166B837C838D839E8379
:100B760021E030E03C872B8720E030E040E251E482
:100B86006B817C818D819E810E94FF156B837C83A6
:100B96008D839E8331E0231A3108BFCF40E84D8311
:100BA6005FE35E83212C312C812F110F990B9BA3C0
:100BB6008AA30E94C0158B8FD7FC03C0DEA2CDA2EC
:100BC60004C0E6E0F0E0FEA3EDA3FB8DF73641F4AA
:100BD600CD2809F01EC221E030E03EA32DA319C2A4
:100BE6008B8D8D8B04C037FE25C296E69D8BEDA1BD
:100BF600FEA13196FEA3EDA3FD89F63699F437FEE4
:100C060008C01B821C8220E82D833FE33E83212CF3
:100C1600312C4B8D473631F08DA19EA1820D931D4F
:100C26009EA38DA39B819B87EC81ED87FD81FE8B27
:100C36002E812A8F750164011D8E1C8E8C8D9D8DD3
:100C4600EDA1FEA18E179F07C1F12B853D854E892B
:100C56005A8DC701B6010E94FF150E941B0C2B017D
:100C66003C010E94E4156CA38701760117FB1095E1
:100C760017F910952B853D854E895A8DC301B20112
:100C86000E947D0B6B017C01F7FAF094F7F8F09463
:100C960020E030E040E251E46B857D858E899A8DB7
:100CA6000E94FF156B877D878E8B9A8F4C8D5D8D8D
:100CB6004F5F5F4F5D8F4C8FC1CF20E030E040EA41
:100CC60050E46B857D858E899A8D0E9403162B01D3
:100CD6003C019B01AC01C701B6010E94F11587FDDD
:100CE6000BC0A3019201C701B6010E94F115811143
:100CF60006C0FCA1F0FD03C0412C512C3201A3011A
:100D06009201C501B4010E94DE154B015C012D89DB
:100D1600253611F0310102C0612C712C23014DA141
:100D26005EA1441A550AC988DA8800E010E01C86DC
:100D36001B8689859A85807199279F8B8E8B641473
:100D4600750431F48B859C85892B09F49AC0A6C05D
:100D5600DD8ECC8EE88DF98D808591850597C81638
:100D6600D90680F72B813C814D815E81C501B40196
:100D76000E94FF150E941B0C6D877E878F87988BBC
:100D86000E94E415CB01EE89FF89EF2B69F4892BCC
:100D960059F4FB8DF73641F477FE06C098012F5FB4
:100DA6003F4F3D8F2C8F43C04B855C85452BB1F45F
:100DB60077FE14C05FEFC51AD50AE981FA818C8DDA
:100DC6009D8DE80FF91F9EE29083EF81F88531979C
:100DD600F887EF8321E030E03C872B87E981FA81B1
:100DE600EC0DFD1D1D8F0C8F8C8D9D8D892B49F073
:100DF60030E331934C8D5D8D415051095D8F4C8FA1
:100E0600F3CFC8018C0D9D1D2F813885201B310B1A
:100E16006C01EFEFCE1ADE0AE981FA81E80FF91FBD
:100E2600605D6083A9014150510958874F83850150
:100E3600740117FB109517F910952B813C814D8194
:100E46005E816D857E858F8598890E947D0B4B011D
:100E56005C01B7FAB094B7F8B09420E030E040E215
:100E660051E46B817C818D819E810E94FF156B838D
:100E76007C838D839E8351E0651A71080C8D1D8DD0
:100E86005ECFF985F4FF0AC0E981FA81EC0DFD1DFC
:100E96008EE2808396012F5F3F4F690149815A8117
:100EA6004C0D5D1D5C874B87FA011082FD89F53676
:100EB60009F061C0E981FA8128A139A1E20FF31F87
:100EC6003197108237FE06C031942194310801E033
:100ED60010E002C000E010E0E8A1F9A131974981D5
:100EE6005A81E40FF51F22E030E08AE0E82EF12C6B
:100EF600CF0149815A81841B950B2114310479F065
:100F0600C101B7010E94DB14805D82931B01215051
:100F160031098F819885019798878F83E9CF1216BB
:100F2600130674F3FC013197E40FF51F012B11F43E
:100F36002BE201C02DE220830297E981FA81E80FB6
:100F4600F91F2AA13BA1215431092A31310510F09C
:100F560025E601C025E420832F81388522503109FA
:100F660038872F83C816D90634F4AF0160E88B851D
:100F76009C850E94371549815A813A0180E8882E5E
:100F8600998591FF2EC090FD2CC0EF81F8851E1625
:100F96001F063CF5882DB3010E94B11429813A81C0
:100FA600820F931F9C0149815A81241B350BE989C5
:100FB600FA892E173F074CF0FC012081EF81F88556
:100FC600E80FF91F20830197EDCF4F81588560E325
:100FD60070E089819A818E0F9F1F0E94A6151C8A38
:100FE6001B8A882DB3010E94B114E984FA840B8907
:100FF6001C899C01682DA3018E8D9F8D0E94B40CC7
:10100600A696E2E10C946414598553FF00CD80E264
:10101600F0CC2CEF22162FEF32064CF04DA15EA13C
:10102600241635060CF4DFCD55E65D8BFBCD35E693
:0A1036003D8BF8CD46E64D8BF5CD5D
:10104000A4E1B0E0E6E2F8E00C94481498878F83BE
:101050007A8369835C8B4B8B122FDB011296ED91A7
:10106000FC91139714962D913C9115973E832D83F7
:10107000ED90FC90119716962D903C901797F7FDE8
:1010800003C0E894E1F802C0E1E0F0E0C70180713C
:1010900099279A878987E4FE1FC0AB89BC892C9168
:1010A00011963C91119712964C91129713965C9160
:1010B000139714966C91149715967C911597169624
:1010C0008C91169717969C91A0E00E94791521F0BB
:1010D0008D819E81029702C08D819E81970128702B
:1010E00033273C872B87E3FC0197AB89BC894C9065
:1010F00011965C90119712966C90129713967C90B3
:10110000139714968C90149715969C901597169695
:10111000AC9016971796BC90A981BA811896CD907D
:10112000DC901997B1E0CB1AD108D101AC0DBD1DEF
:101130001C929C838B839F01281B390B3E872D8734
:10114000C70182709927988B8F87812F012E000C01
:10115000990BDC01A154B109BA8BA98B32E0C316FB
:10116000D10434F489859A85892B09F04CC073C069
:101170009201A301B401C501A0E00E94791581F19B
:10118000B1E0CB1AD108C2018F7099278A3091053E
:1011900014F4C09602C0895A9F4FE989FA897A9758
:1011A00048F49C012062215631092A31310510F49E
:1011B0000E94AF15F101EC0DFD1D80832B813C8158
:1011C000215031093C832B839201A301B401C50155
:1011D00004E00E942C1429013A014B015C01BECFAE
:1011E0008D859E85AB81BC818A0F9B1F18161906C1
:1011F0003CF21A161B060CF0B5CFEF85F889EF2BE1
:1012000009F0BECFAFCFAB89BC892C9111963C9130
:10121000119712964C91129713965C91139714960E
:101220006C91149715967C91159716968C9116973C
:1012300017969C91A0E00E94791569F0F101EC0DE0
:10124000FD1D31971083B2E0CB1AD108F101EC0DEE
:10125000FD1D80E38083EB85FC85EF2B41F0F1E001
:10126000CF1AD108F101EC0DFD1D80E28083A98128
:10127000BA8118962D913C911997215031092C195A
:101280003D09C20CD31CA60160E80D811E818F812F
:1012900098850E94B40C9C01EF81F8858081918132
:1012A00090FF09C0A981BA8112968D919C911397E4
:1012B000821793070CF4C9016496E2E10C9464145C
:1012C000ADE0B0E0E6E6F9E00C9448149A8789872F
:1012D0007C836B83FA01DB011296CD90DC9013972F
:1012E00014968D919C9115979E838D83ED90FC9023
:1012F0001197FA82E98216960D90BC91A02DB887BD
:10130000AF832080318042805380648075808680E6
:1013100097808101B42DF52DE62D7B868C869D86E8
:101320009101A201B301C401A0E00E9479154CF41F
:101330000E9427158901B42FF52FE62F7B878C8714
:101340009D87D7FC04C0E894E1F8FA82E982910114
:10135000A201B301C401A0E0ED80FE800E947915D6
:101360001CF0898182FF04C081E0E81AF10805C001
:1013700083FF03C091E0E91AF108CE0101965C01F8
:101380008AE0C82ED12C2B2F3F2F4E2F5B856C85EA
:101390007D858B819C810E94D80AFC019101A2016C
:1013A000B301C401A0E00E9479151CF0898182FF7D
:1013B00012C031970F8118850E0F1F1F9101A201D6
:1013C000B301C401A0E00E94791514F08BE201C0C2
:1013D0008DE2D80108C083FF07C03197AF81B8857F
:1013E000AE0FBF1F80E28C93E980FA80AB81BC8195
:1013F00018962D913C911997215031092E1B3F0BC6
:101400008F819885E80FF91FAF0160E80D811E817B
:1014100089859A850E94B40C9C01A985BA858D9115
:101420009C9190FF07C0EB81FC81828193818217A0
:0E14300093070CF4C9012D96E2E10C946414AC
:10143E000F931F93CF93DF93FC01D9016838710589
:10144E0031F194F461387105B1F12CF46038710505
:10145E0009F478C09FC06238710509F459C0643828
:10146E00710509F46FC096C0603A710509F448C061
:10147E002CF46039710509F44BC08CC0603C7105C9
:10148E0009F476C0603F710509F472C083C0CD9136
:10149E00DC911197CE0102968D939C93452B39F0DA
:1014AE009881892F880F880B908381835BC08881F8
:1014BE008083118268C0CD91DC911197CE01049684
:1014CE008D939C93452B99F088819981AA81BB813C
:1014DE00AC01BD01770F440B542FBA018083918369
:1014EE00A283B383448345834683478328C0088100
:1014FE0019812A813B81008311832283338345C066
:10150E00CD91DC911197CE0102968D939C9323C0C1
:10151E00CD91DC911197CE0108968D939C93788195
:10152E0069815A814B813C812D819E818F8170838F
:10153E00618352834383348325839683878381E03B
:10154E0090E02AC0CD91DC911197CE0102968D9339
:10155E009C93452BA1F099812881892F880F880BA8
:10156E002083918382838383848385838683E6CFDE
:10157E00CD91DC911197CE0102968D939C930881AB
:10158E0019810083118312821382148215821682AE
:10159E001782D5CF80E090E0DF91CF911F910F9110
:0215AE0008959E
:1015B000A2E1B0E0EEEDFAE00C944814FC010A8BD5
:1015C0001B832C83732E642E552E462E7D83CC8652
:1015D000D886BF82AE82868197819B878A87D50114
:1015E0004D915C91228133818085918501971C0109
:1015F00037FF02C021E030E0EA85FB85E80FF91FE4
:1016000010824701E1E0F0E0FA83E983C9018E1915
:101610009F099E878D87DA01A270BB27B88BAF87A1
:10162000B885BB0FBB0BB98B1214130474F0A981DE
:10163000BA81AB2B09F05CC0AE81BF818D919C91CA
:1016400011978F7E8D939C9353C02A893B814C8147
:10165000572D662D752D842D9D81A0E00E94791552
:10166000B1F1E1E02E1A3108FC85F987AF2EB8847C
:10167000C988DC2CEC2CFC2C0C2D1C2D2A893B81E0
:101680004C81572D662D752D842D9D810E94451509
:10169000C90129839A83EA85FB85E20DF31D805DEC
:1016A000808381E0881A91082A893B814C81572DDB
:1016B000662D752D842D9D810E9447152A8B3B83B5
:1016C0004C83752E662E572E482E9D83ADCF8D856B
:1016D0009E85880D991D181619061CF218141904F8
:1016E0000CF0A5CFEF85F889EF2B09F0BACF9FCF8B
:0A16F000C1016296E2E10C9464145B
:1016FA00A5E1B0E0E3E8FBE00C9448144701580187
:10170A000E9403162B013C01A80197010E94DE15D5
:10171A00162FC72ED82EF92E862F9C2DAD2DBF2D14
:10172A0089839A83AB83BC83AA81FB81EC81ED8098
:10173A003E802F8008850D8B5E2F5F71212F3A2FF7
:10174A004F2F60E070E080E090E0211531054105FF
:10175A0000E15007610571058105910509F05EC038
:10176A005E2F6E2D732D822D9D8904E30E942C1409
:10177A002D873E874F87588B698B7A8B8B8B9C8BF7
:10178A008D859E8597708F3F974009F447C0A301C6
:10179A009201612F7C2D8D2D9F2D0E94DD159B01BD
:1017AA00AC01C501B4010E94F1158823B9F149863B
:1017BA005A866B867C8629853A854B855C85C50168
:1017CA00B4010E94DE15B62E872E982EA92E262F3A
:1017DA00372F482F592F612F7C2D8D2D9F2D0E9439
:1017EA00F115811118C02B2D8B2D982DA92DBA2DED
:1017FA0089839A83AB83BC833A814B815C816E2D4A
:10180A00732D822D9D89A1E00E948515122FC32E6A
:10181A00D42EF52E03C01B2D6401FA2C612F7C2DCA
:0C182A008D2D9F2D6596E2E10C94641456
:101836004F925F926F927F928F929F92AF92BF92DA
:10184600CF92DF92EF92FF92CF93DF93CDB7DEB7C1
:1018560028970FB6F894DEBF0FBECDBF6B017C0193
:10186600DC01CB0147E1B695A795979587954A95F3
:10187600D1F799278F579109873191059CF597FDE7
:1018860036C088248A94982C3FE7A32EB12C04C036
:10189600B594A794979487948A95D2F7D501C401F5
:1018A6008C219D21AE21BF21892B8A2B8B2BD1F038
:1018B60020E030E040E85BE7C701B6010E94DE1594
:1018C6006D837E838F839887F7FE04C0C80CD91C6E
:1018D600EA1CFB1C80949094A094B094C820D92054
:1018E600EA20FB205C2D4D2D3E2D2F2D21C020E022
:1018F60030E040E85BE7C701B6010E94DE15698368
:101906007A838B839C83F7FE0FC0D701C601880FAD
:10191600991FAA1FBB1F892B8A2B8B2B19F350E00B
:1019260040E030E82FEB04C050E040E030E020E03B
:10193600652F742F832F922F28960FB6F894DEBF4B
:101946000FBECDBFDF91CF91FF90EF90DF90CF908C
:10195600BF90AF909F908F907F906F905F904F90C9
:021966000895E2
:101968002F923F924F926F927F928F92AF92BF9237
:10197800CF92DF92EF92FF920F931F93CF93DF9353
:10198800CDB7DEB766970FB6F894DEBF0FBECDBFF2
:101998005C013A01862E6901C701817099279C8BE9
:1019A8008B8BE0FC1DC020173107D4F47801EC18AC
:1019B800FD08FE8AED8AA70191E1E916F10410F00D
:1019C80040E150E060E270E0CE0101969A8B898B8D
:1019D8000E94A61589899A891C0120E8422E0BC00D
:1019E8009601682DA301C5010E943D13C016D106BA
:1019F800ECF2C60125C090E1E916F10458F020E1A7
:101A080030E0642DA101C5010E943D1380E1E81A70
:101A1800F108F1CF2D893E892F70332789899A895A
:101A2800AC0160E8C5010E943D138B899C89892B14
:101A380031F49601682DA301C5010E943D13C80128
:101A480066960FB6F894DEBF0FBECDBFDF91CF917B
:101A58001F910F91FF90EF90DF90CF90BF90AF90C4
:0E1A68008F907F906F904F903F902F90089539
:101A760071C081E090E0909309018093080120E015
:101A860030E013C086B1806486B93699FECF84B142
:101A960095B14091060150910701840F951F9093CF
:101AA6000701809306012F5F3F4F2A30310554F31B
:101AB60080910601909107016AE070E00E94DB14B4
:101AC600CB0170930701609306016FEF73E00E94EC
:101AD600DB14CB01880F991F880F991F680F791F98
:101AE600072E000C880B990B0E94C7126093020107
:101AF6007093030180930401909305010E94FB15E6
:101B0600809107018F93809106018F938091050143
:101B16008F93809104018F93809103018F9380911D
:101B260002018F938EEA90E0A0E0AF939F938F938C
:101B3600C0E6D0E0DF93CF930E940315BE0180E894
:101B46000E947F148DB79EB70B960FB6F8949EBF72
:101B56000FBE8DBF80B38091080190910901892B3A
:041B6600C9F787CF65
:101B6A0010C00E94CF1558F00E94C81540F029F401
:101B7A005F3F29F00C94EB1551110C94D7150C9476
:101B8A0007160E94E81368F39923B1F3552391F3DA
:101B9A00951B550BBB27AA2762177307840738F0D2
:101BAA009F5F5F4F220F331F441FAA1FA9F335D02F
:101BBA000E2E3AF0E0E832D091505040E695001CE3
:101BCA00CAF72BD0FE2F29D0660F771F881FBB1F9D
:101BDA00261737074807AB07B0E809F0BB0B802D7B
:101BEA00BF01FF2793585F4F3AF09E3F510578F0A7
:101BFA000C94EB150C94D7155F3FE4F3983ED4F39D
:101C0A00869577956795B795F7959F5FC9F7880F7A
:101C1A00911D9695879597F90895E1E0660F771FCC
:101C2A00881FBB1F621773078407BA0720F0621B5D
:0E1C3A00730B840BBA0BEE1F88F7E09508952C
:101C4800CF93C82F662321F08BB384608BBB03C06E
:101C58008BB38B7F8BBB8BB3877F8BBB8AB3806245
:101C68008ABB8AB380648ABB8AB380688ABB84B320
:101C7800806484BB85B38F7B85BB8BB38F778BBB2D
:101C88008BB38F7B8BBB8BB38F7D8BBBCC231CF42F
:101C980085B3806485BBC6FF03C08BB380688BBBEC
:101CA800C5FF03C08BB380648BBBC4FF03C08BB379
:101CB80080628BBB0E94B81585B38F7B85BB8BB3C5
:101CC8008F778BBB8BB38F7B8BBB8BB38F7D8BBBA2
:101CD800C3FF03C085B3806485BBC2FF03C08BB359
:101CE80080688BBBC1FF03C08BB380648BBBC0FF14
:101CF80003C08BB380628BBB0E94B8158BB3806224
:101D08008BBB8BB380648BBB8BB380688BBB85B379
:081D1800806485BBCF910895A2
:101D2000CF93DF93DC01F90164387105D9F164F4D4
:101D30006138710521F16238710509F440C06038DD
:101D4000710509F054C02EC060397105C1F184F4E9
:101D50006838710509F04BC0C081D181CE0102966F
:101D600091838083E881F981ED93FC9340833CC0AB
:101D7000603A7105B9F0603C7105A1F038C0C081CE
:101D8000D181CE01029691838083E881F981ED9320
:101D9000FC93052E000C660B770B40835183628306
:101DA000738322C0C081D181CE010296918380834A
:101DB000E881F981ED93FC935183408315C0C08184
:101DC000D181CE01029691838083E881F981ED93E0
:101DD000FC9351834083852F880F880B82838383F4
:101DE000848385838683878381E090E002C080E0DE
:081DF00090E0DF91CF9108950E
:101DF8000FC00E94C81538F00E94CF1520F0952317
:101E080011F00C94EB150C94071611240C94D715AB
:101E18000E94E81370F3959FC1F3950F50E0551F8A
:101E2800629FF001729FBB27F00DB11D639FAA2727
:101E3800F00DB11DAA1F649F6627B00DA11D661F76
:101E4800829F2227B00DA11D621F739FB00DA11D97
:101E5800621F839FA00D611D221F749F3327A00D51
:101E6800611D231F849F600D211D822F762F6A2FED
:101E780011249F5750409AF0F1F088234AF0EE0F52
:101E8800FF1FBB1F661F771F881F91505040A9F77F
:101E98009E3F510580F00C94EB150C94D7155F3FCD
:101EA800E4F3983ED4F3869577956795B795F795BB
:101EB800E7959F5FC1F7FE2B880F911D9695879533
:041EC80097F90895E9
:101ECC00A2E0B0E0ECE6FFE00C9448141C014B01DE
:101EDC00FA01DB0112962D913C91139714964D90BB
:101EEC005C9015978D919C9111979A838983169686
:101EFC006D907C90179737FD03C08D7F9A838983F3
:101F0C0000811181228133814481558166817781E1
:101F1C00FE0131965F0188E0C82ED12C7201C401FC
:101F2C000E94D80A298124FF06C00197F301E80F0B
:101F3C00F91F20E32083298123FF06C00197F301B9
:101F4C00E80FF91F20E22083E980FA80D40118966B
:101F5C002D913C91199721503109281B390B860D75
:101F6C00971DAC0160E88201C1010E94B40C9C0178
:101F7C00F1018081918190FF08C0D40112968D915E
:101F8C009C911397821793070CF4C9012296E2E1F6
:041F9C000C94641429
:101FA00011C00E94C81538F00E94CF1520F039F4F6
:101FB0009F3F19F426F40C9407160EF4E095E7FB06
:101FC0000C94EB15E92F0E94E81358F3BA17620737
:101FD00073078407950720F079F4A6F50C94D615BD
:101FE0000EF4E0950B2EBA2FA02D0B01B901900134
:101FF0000C01CA01A0011124FF27591B99F0593F78
:1020000050F4503E68F11A16F040A22F232F342FBF
:102010004427585FF3CF469537952795A795F0400D
:102020005395C9F77EF41F16BA0B620B730B840B22
:10203000BAF09150A1F0FF0FBB1F661F771F881FDA
:10204000C2F70EC0BA0F621F731F841F48F4879532
:1020500077956795B795F7959E3F08F0B0CF939524
:0E206000880F08F09927EE0F97958795089541
:10206E002F923F924F926F927F928F92AF92BF922A
:10207E00CF92DF92EF92FF920F931F93CF93DF9346
:10208E00CDB7DEB727970FB6F894DEBF0FBECDBF24
:10209E006C017B013901842E980186E5282E81E0A2
:1020AE00382E80E0482E87E0F101AE014F5F5F4F82
:1020BE00DA01742D0E946015F70102811381A4804C
:1020CE00B580E080F18061147104810419F43A0145
:1020DE00F0E88F2E2115310529F4882DB3010E94C9
:1020EE00B1149C0117FD04C00217130708F49801E0
:1020FE008501682DA301C6010E94B40C27960FB668
:10210E00F894DEBF0FBECDBFDF91CF911F910F911F
:10211E00FF90EF90DF90CF90BF90AF908F907F9019
:0A212E006F904F903F902F9008959E
:10213800A2E0B0E0E2EAF0E10C9448143C014B0163
:10214800FA01DB0112962D913C91139714964D904C
:102158005C9015978D919C9111979A838983169617
:102168002D903C90179737FD03C08D7F9A83898304
:102178000081118122813381448155816681778173
:10218800FE0131965F018AE0C82ED12C7201C4018C
:102198000E94D80AE980FA80D40118962D913C91C2
:1021A800199721503109281B390B820D931DAC0159
:1021B80060E88201C3010E94B40C9C01F301808194
:1021C800918190FF08C0D40112968D919C9113972C
:1021D800821793070CF4C9012296E2E10C94641467
:1021E8006F927F928F92EF92FF920F931F93CF93EC
:1021F800DF93CDB7DEB761970FB6F894DEBF0FBE99
:10220800CDBFFE01319651E1DF011D925A95E9F7E4
:10221800A2E0B1E0BA83A9839C838B8377FF09C0CE
:102228008FE490E090930101809300018FEF9FEF7E
:1022380019C03901842E7C01615071097F836E8336
:102248009801682DA301CF010E94991448855985EA
:102258002E813F814217530708F49A01F701E20FD4
:10226800F31F108261960FB6F894DEBF0FBECDBF84
:10227800DF91CF911F910F91FF90EF908F907F90FA
:042288006F900895B6
:10228C0088249924F401E401B0E49F93AA279A15B9
:10229C008B049C04ED05FE05CF05D007A10798F42F
:1022AC00AD2FDC2FCF2FFE2FE92D982C892E982FB8
:1022BC00872F762F652F542F432F322F2227B8507C
:1022CC0031F7BF9127C01B2EBF91BB27220F331FA5
:1022DC00441F551F661F771F881F991F881C991C48
:1022EC00EE1FFF1FCC1FDD1FAA1FBB1F8A149B04F0
:1022FC00EC05FD05CE05DF05A007B10748F08A18EF
:10230C009B08EC09FD09CE09DF09A00BB10B21607C
:10231C001A94E1F62EF49401AF01BE01CD01000C2C
:02232C00089512
:10232E00CF92DF92EF92DC0190E0292F30E0220F66
:10233E00331F6901032E000CEE086E2DA601405DC1
:10234E005E4F6F4F6A01E62EFA018491E7FC8081A1
:10235E0081110DC02F5F3F4F032E000C440B205DEB
:10236E003E4F4F4FF901849147FD808124C0CD909F
:10237E00DD90EC901297F6014491E7FC40818413B6
:10238E0015C02F5F3F4F032E000C440B205D3E4FB8
:10239E004F4FF901949147FD90815FEFC51AD50A11
:1023AE00E50ACD92DD92EC92129701C09F5F9B30B1
:0E23BE0008F4BBCF892FEF90DF90CF900895E9
:1023CC001F93CF93DF93182F8AB384608ABB8AB391
:1023DC0088608ABB8AB380618ABB8AB380628ABBFD
:1023EC008AB380648ABB8AB380688ABB84B38064F6
:1023FC0084BB80E09DE70197F1F78BB380648BBBC6
:10240C008BB380628BBB0E94B81580E097E201977A
:10241C00F1F70E94B815C0E8D0E0CE010197F1F7B2
:10242C000E94B815CE010197F1F78BB38F7D8BBB52
:10243C000E94B8152197F1F788E20E949C1588E05C
:10244C000E949C150E94FB1586E00E949C15812F12
:0C245C000E949C15DF91CF911F91089504
:102468000F931F93CF93DF93DB012D913C9111972D
:1024780030FF25C017964D915C91189715962D91B0
:102488003C9116974217530778F41296ED91FC91F8
:102498001397808312962D913C9113972F5F3F4F8E
:1024A80013963C932E93129717962D913C9118975B
:1024B8002F5F3F4F18963C932E93179715C01D9684
:1024C800ED91FC911E97309719F48FEF9FEF0CC098
:1024D8008B01EC010995892BC1F7F801878190855B
:1024E800019690878783CE01DF91CF911F910F913D
:0224F800089545
:1024FA00CF939B01482FF901849147FD8081803257
:10250A00C9F1682F082E000C770B695071096530E4
:10251A00710580F18B3249F5A0E0B0E02F5F3F4FA3
:10252A004F4F02C0A0E0B0E080E090E0CAE0F901BD
:10253A00649147FD6081062E000C770B6053710988
:10254A006A30710560F4C89FF001C99FF00D11242B
:10255A002F5F3F4F4F4FCF01861B970BE8CFAB2B17
:10256A0069F491958195910909C08D32D9F6A1E056
:10257A00B0E0D4CF2F5F3F4F4F4FBDCFCF910895DB
:10258A00E89409C097FB3EF4909580957095619503
:10259A007F4F8F4F9F4F9923A9F0F92F96E9BB27B9
:1025AA009395F695879577956795B795F111F8CF35
:1025BA00FAF4BB0F11F460FF1BC06F5F7F4F8F4FA0
:1025CA009F4F16C0882311F096E911C0772321F096
:1025DA009EE8872F762F05C0662371F096E8862F2E
:1025EA0070E060E02AF09A95660F771F881FDAF785
:0A25FA00880F9695879597F90895CC
:10260400882321F08BB384608BBB03C08BB38B7F97
:102614008BBB8BB388608BBB8AB38F7D8ABB8AB339
:102624008F7B8ABB8AB38F778ABB84B38F7B84BB4F
:102634008BB380618BBB00C0CD9902C080E001C028
:1026440080E1CE998062CF9980649E9980689BB323
:102654009F7E9BBB00C09BB390619BBB00C0CD9988
:102664008160CE998260CF9984609E9988609BB383
:062674009F7E9BBB089550
:10267A006F927F928F92CF92DF92EF920F931F9376
:10268A00CF93DF938C016A01E62EE9013A01862E87
:10269A00620E731E811C37FD8A94C614D704E8049F
:1026AA0079F0F6018491E7FC8081B801082E000CCC
:1026BA00990B0E9434128FEFC81AD80AE80AEDCF94
:1026CA00CE01DF91CF911F910F91EF90DF90CF90C4
:0826DA008F907F906F9008952E
:1026E2000E94F01388F09F5798F0B92F9927B7519D
:1026F200B0F0E1F0660F771F881F991F1AF0BA95A4
:10270200C9F714C0B13091F00E94D615B1E0089516
:102712000C94D615672F782F8827B85F39F0B93F08
:10272200CCF3869577956795B395D9F73EF4909556
:0E2732008095709561957F4F8F4F9F4F089552
:10274000CF93C82F0E945315CA3049F4803410F437
:1027500080E401C080E080580E949C1513C0803145
:1027600029F460E080EC0E94240E06C0803521F43C
:1027700060E080E80E94240E0E94531561E08C2FD7
:082780000E94240ECF91089580
:10278800990F0008550FAA0BE0E8FEEF161617067A
:10279800E807F907C0F012161306E407F50798F0E2
:1027A800621B730B840B950B39F40A2661F0232BFB
:1027B800242B252B21F408950A2609F4A140A69577
:0827C8008FEF811D811D0895B2
:1027D00057FD9058440F551F59F05F3F71F04795D2
:1027E000880F97FB991F61F09F3F79F087950895B7
:1027F000121613061406551FF2CF4695F1DF08C0D6
:10280000161617061806991FF1CF869571056105F2
:04281000089408958B
:10281400FA0160387105CCF0623871051CF0633838
:10282400710599F4A081B1819D012C5F3F4F3183E3
:1028340020834D915D916D917C91FC014083518386
:102844006283738381E090E0089580E090E00895CE
:1028540097FB10F8169400080F93083098F008506E
:10286400232F342F452F562F672F782F892F902D04
:10287400F4CF0594979587957795679557954795E0
:0C288400379527950A95AAF70F91089543
:102890002F923F924F925F926F927F928F929F9270
:1028A000AF92BF92CF92DF92EF92FF920F931F935E
:1028B000CF93DF93CDB7DEB7CA1BDB0B0FB6F8940F
:0828C000DEBF0FBECDBF09947D
:1028C8002A88398848885F846E847D848C849B84B8
:1028D800AA84B984C884DF80EE80FD800C811B81C6
:1028E800AA81B981CE0FD11D0FB6F894DEBF0FBEF5
:0628F800CDBFED010895C3
:1028FE00CF92DF92EF92A82FCB0104C00E94A013BB
:10290E00AE2DC6016C01EA2E2FEFC21AD20AE20AD0
:10291E00FC018491A7FD80818111F0CFEF90DF90B3
:04292E00CF900895A9
:10293200A2E0B0E0EFE9F4E10C9456148C013A8382
:1029420029839E012F5F3F4F0E94B200F801208130
:1029520024FF02C08FEF9FEF2296E4E00C947214E2
:10296200CF92DF92EF926B01E82EA82FCB01FC01F0
:102972002491A7FD2081222319F00196A11DF7CFF2
:0C2982008C199D09EF90DF90CF90089514
:10298E008FEF87BB86B1806886B987B1806487B9BF
:10299E008CE00E94E6110E94FB1564ED70E080E071
:0829AE000E947F140E943B0D02
:1029B60097FB072E16F4009407D077FD09D00E94E6
:1029C600EF1407FC05D03EF4909581959F4F08952E
:0829D600709561957F4F089593
:1029DE00AA1BBB1B51E107C0AA1FBB1FA617B70737
:1029EE0010F0A61BB70B881F991F5A95A9F7809553
:0829FE009095BC01CD01089584
:102A0600A0E0B0E0E9E0F5E10C9458149E01265FE1
:102A16003F4F4F81588569858D819E810E946D1536
:062A2600E2E00C947414C0
:102A2C00092E0394000C11F4882352F0BB0F40F4D0
:102A3C00BF2B11F460FF04C06F5F7F4F8F4F9F4F10
:022A4C000895EB
:102A4E00609570958095909530954095509521950F
:102A5E003F4F4F4F5F4F6F4F7F4F8F4F9F4F089599
:102A6E009A01462FDC01F901549147FD50815D9387
:0C2A7E002F5F3F4F4F4F5111F6CF0895CE
:102A8A00689401C0E8948F929F92CF93DF930E943B
:0C2A9A004611DF91CF919F908F9008951E
:102AA60080E00E9402138823DCF384E090E0019723
:0A2AB600F1F780E00E94021308957A
:102AC000992777FD05C005900D920197E1F70895CC
:0A2AD00001900D920197E1F70895BF
:102ADA000F931F9389019A01462F6FEF7FE70E9498
:082AEA00F4101F910F910895F3
:102AF2000024A7FD00942A17300540055005600503
:082B020070058005900508959F
:102B0A000024A7FD00942A0F301D401D501D601D92
:082B1A00701D801D901D08953F
:102B2200EC010E9412160E941116CE010E94131689
:062B3200CE010E940F1607
:102B3800CF93C82F0E94531560E08C2F0E94240E5B
:042B4800CF9108958C
:102B4C00FC01480F591FE417F50711F06193FBCFF7
:022B5C000895DA
:102B5E009C01215631092A31310510F48F759927C0
:022B6E000895C8
:102B70008BB380618BBB00C08BB38F7E8BBB089502
:102B80009C01215431092A31310508F480620895ED
:0E2B900000240A941616170618060906089562
:0E2B9E0000240A941216130614060506089564
:0E2BAC00E894BB2766277727CB0197F9089599
:0E2BBA005058BB27AA270E94D00F0C94161566
:0E2BC8000E9471136894B1110C94D7150895F2
:0C2BD60097F99F6780E870E060E00895C8
:0A2BE2000E94C41308F481E0089576
:0A2BEC000E94C41308F48FEF08954F
:082BF60081E00E949C15089586
:082BFE000E94B50D0C941615A0
:082C06000E94FC0E0C9416154F
:062C0E009FEF80EC089529
:062C140080E090E008954D
:042C1A000C94000016
:042C1E000E945500BB
:022C2200089513
:022C2400089511
:022C260008950F
:00000001FF
