:100000000C9430000C94A5000C9484000C94EA002D
:100010000C94EA000C94EA000C94EA000C94D300CF
:100020000C94EA000C94EA000C94EA000C94EA00A8
:100030000C94EA000C94EA000C94EA000C94EA0098
:100040000C94EA000C94EA000C94EA000C94EA0088
:100050000C94EA00006000640001E2006400668025
:1000600011241FBECFE5D8E0DEBFCDBFE4E5F0E050
:1000700040E017C0B591A59135912591059107FDF7
:100080000CC095918591EF01F92FE82F05900D9205
:10009000A217B307D9F7FE0104C01D92A217B30738
:1000A000E1F7E036F40731F70E94C5000C94DF0059
:0400B000F894FFCFF2
:1000B40080916400882399F082B3806282BB86E7D2
:1000C40091E00197F1F700C0000082B38F7D82BBFD
:1000D40080E192E10197F1F700C00000E9CF82B31B
:1000E400806282BB89EF90E00197F1F700C00000C5
:1000F40082B38F7D82BB8DE892E10197F1F700C056
:040104000000D6CF52
:100108001F920F920FB60F9211248F939F93AF9364
:10011800BF9380E090E0A0ECBFE3809360009093F1
:100128006100A0936200B093630081E08093640053
:10013800BF91AF919F918F910F900FBE0F901F901D
:02014800189508
:10014A001F920F920FB60F9211248F939F93AF9322
:10015A00BF9380E090E0A0E8BFE3809360009093B3
:10016A006100A0936200B093630010926400BF9193
:10017A00AF919F918F910F900FBE0F901F9018957E
:10018A0080E181BB78948BB7806C8BBF85B7826026
:0C019A0085BF85B78E7F85BF0E945A008C
:1001A6001F920F920FB60F921124109265000F90B6
:0801B6000FBE0F901F90189579
:1001BE00EC010E94EF000E94EE00CE010E94F000C2
:0601CE00CE010E94EC00CE
:0401D4000C94000087
:0401D8000E94580029
:0201DC00089584
:0201DE00089582
:0201E000089580
:0401E2000000803F5A
:00000001FF
